:100000000C9463000C948B000C948B000C948B006C
:100010000C948B000C948B000C948B000C94AB050F
:100020000C948B000C948B000C948B000C948B0024
:100030000C948B000C948B000C948B000C948B0014
:100040000C9461050C948B000C942D060C940706FF
:100050000C948B000C948B000C948B000C948B00F4
:100060000C948B000C948B000000000023002600F1
:1000700029000200000000240027002A00000000E0
:1000800000250028002B00040404040404040402D6
:100090000202020202030303030303010204081025
:1000A00020408001020408102001020408102000F2
:1000B0000000080002010000030407000000000027
:1000C000000000005F0611241FBECFEFD8E0DEBFA6
:1000D000CDBF11E0A0E0B1E0ECE3FAE102C0059091
:1000E0000D92AC3DB107D9F722E0ACEDB1E001C013
:1000F0001D92AB3AB207E1F710E0C3E6D0E004C0CE
:100100002197FE010E94160DC236D107C9F70E9441
:10011000A9060C941C0D0C940000833081F028F487
:10012000813099F08230A9F008958730A9F08830A5
:10013000C9F08430B1F4809180008F7D03C080913C
:1001400080008F7780938000089584B58F7784BD79
:10015000089584B58F7DFBCF8091B0008F77809319
:10016000B00008958091B0008F7DF9CF1F93CF9399
:10017000DF93282F30E0F901E155FF4F8491F90119
:10018000E556FF4FD491F901E957FF4FC491CC23B5
:10019000A9F0162F81110E948D00EC2FF0E0EE0FD8
:1001A000FF1FE358FF4FA591B4918FB7F894EC91DE
:1001B000111108C0D095DE23DC938FBFDF91CF9162
:1001C0001F910895DE2BF8CFCF93DF9390E0FC01D1
:1001D000E556FF4F249189579F4FFC018491882356
:1001E000D1F090E0880F991FFC01ED58FF4FA591C9
:1001F000B491FC01E358FF4FC591D49161110EC039
:100200009FB7F8948C91E22FE0958E238C932881F0
:10021000E223E8839FBFDF91CF9108958FB7F894D1
:10022000EC91E22BEC938FBFF6CF8E5080648093DD
:100230007C0080917A00806480937A0080917A00BB
:1002400086FDFCCF809178009091790008953FB7AA
:10025000F8948091F2019091F301A091F401B09192
:10026000F50126B5A89B05C02F3F19F00196A11DE9
:10027000B11D3FBFBA2FA92F982F8827BC01CD01F0
:10028000620F711D811D911D42E0660F771F881F4F
:10029000991F4A95D1F708958F929F92AF92BF927E
:1002A000CF92DF92EF92FF924B015C010E942701F7
:1002B0006B017C010E9427016C197D098E099F0941
:1002C000683E734081059105A8F321E0821A9108E8
:1002D000A108B10888EEC80E83E0D81EE11CF11C0D
:1002E00081149104A104B10429F7FF90EF90DF90ED
:1002F000CF90BF90AF909F908F9008959091000104
:1003000089130BC0E2E7F0E0E4919FEF90930001C6
:10031000E13049F028F0E23061F060E00C94B60082
:1003200010926E00FACF90916F009D7F90936F00B6
:10033000F4CF909170009D7F9093700091E0909326
:10034000B0009091B100987F94609093B1001092AA
:10035000B300E3CFAF92BF92CF92DF92EF92FF92C2
:100360000F931F93CF93DF936C017B018B01040FDD
:10037000151FEB015E01AE18BF08C017D10759F079
:100380006991D601ED91FC910190F081E02DC601BB
:100390000995892B79F7C501DF91CF911F910F91B5
:1003A000FF90EF90DF90CF90BF90AF900895FC0149
:1003B000538D448D252F30E0842F90E0821B930BCA
:1003C000541710F0CF96089501970895FC01918D70
:1003D000828D981761F0A28DAE0FBF2FB11D5D9673
:1003E0008C91928D9F5F9F73928F90E008958FEF15
:1003F0009FEF0895FC01918D828D981731F0828DC9
:10040000E80FF11D858D90E008958FEF9FEF08951F
:10041000FC01918D228D892F90E0805C9F4F821B83
:1004200091098F739927089586EF91E00E94080241
:1004300021E0892B09F420E0822F089580E090E0EC
:10044000892B29F00E94140281110C940000089558
:10045000FC01A48DA80FB92FB11DA35ABF4F2C9139
:10046000848D90E001968F739927848FA689B78930
:100470002C93A089B1898C91837080648C93938D27
:10048000848D981306C00288F389E02D80818F7DCA
:1004900080830895EF92FF920F931F93CF93DF9382
:1004A000EC0181E0888F9B8D8C8D98131AC0E889B0
:1004B000F989808185FF15C09FB7F894EE89FF897F
:1004C0006083E889F98980818370806480839FBF1D
:1004D00081E090E0DF91CF911F910F91FF90EF901D
:1004E0000895F62E0B8D10E00F5F1F4F0F7311272D
:1004F000E02E8C8D8E110CC00FB607FCFACFE88968
:10050000F989808185FFF5CFCE010E942802F1CFC5
:10051000EB8DEC0FFD2FF11DE35AFF4FF0829FB7DB
:10052000F8940B8FEA89FB8980818062CFCFCF93CB
:10053000DF93EC01888D8823B9F0AA89BB89E8890B
:10054000F9898C9185FD03C0808186FD0DC00FB6B1
:1005500007FCF7CF8C9185FFF2CF808185FFEDCF2F
:10056000CE010E942802E9CFDF91CF91089508952E
:1005700090E080E00895FB0101900020E9F73197B9
:10058000AF01461B570BDC01ED91FC910280F3811A
:10059000E02D09948F929F92AF92BF92EF92FF92BB
:1005A0000F931F93CF93DF93CDB7DEB7A1970FB60D
:1005B000F894DEBF0FBECDBF7C01FA01CB0119A2BA
:1005C000223008F42AE08E010F5D1F4F822E912CFD
:1005D000B12CA12CBF01A50194010E94A20AF9012E
:1005E000CA016A300CF5605DD8016E938D01232B32
:1005F000242B252B79F790E080E0109721F0BD01A6
:10060000C7010E94BB02A1960FB6F894DEBF0FBED1
:10061000CDBFDF91CF911F910F91FF90EF90BF90D1
:10062000AF909F908F900895695CDECFCF93DF935A
:10063000BC0186EF91E00E94BB02EC016FE171E02A
:1006400086EF91E00E94BB028C0F9D1FDF91CF913E
:1006500008950C94BB022F923F924F925F926F923B
:100660007F928F929F92AF92BF92CF92DF92EF9242
:10067000FF921F93CF93DF93EC016A017B01722EEF
:10068000AB019601CB01B6010E940A0D62E271E056
:10069000811126C046015701E894B7F82FEF3FEFCC
:1006A0004FE75FE7C501B4010E940A0D81110CC03C
:1006B0002FEF3FEF4FE75FE7C501B4010E94400B0A
:1006C00066E271E0181664F02FEF3FEF4FE75FE44A
:1006D000C701B6010E94980C1816B4F46AE271E0E2
:1006E000CE01DF91CF911F91FF90EF90DF90CF90DF
:1006F000BF90AF909F908F907F906F905F904F9042
:100700003F902F900C94BB022FEF3FEF4FE75FEC31
:10071000C701B6010E94400B87FDE0CF20E030E02A
:10072000A901C701B6010E94400B312C212C87FF83
:100730000DC0E881F9810190F081E02D6DE2CE01DC
:1007400009951C01F7FAF094F7F8F09410E060E0D6
:1007500070E080E09FE3711641F020E030E040E27D
:1007600051E40E94450B1F5FF6CFA70196010E943E
:10077000D40A2B013C010E94B70B4B015C012AE01B
:10078000BC01A401CE010E94CA027C01E20CF31C50
:100790001123E1F1C501B4010E94E60B9B01AC01FC
:1007A000C301B2010E94D30A4B015C01E881F981C7
:1007B0000190F081E02D6EE2CE010995E80EF91E60
:1007C000115020F120E030E040E251E4C501B401D5
:1007D0000E949D0C2B013C010E94B70B4B01B12CD8
:1007E000A12C2AE0B501A401CE010E94CA02E80EA4
:1007F000F91EC501B4010E94E60B9B01AC01C301C7
:10080000B2010E94D30A4B015C01DACFC701DF912C
:10081000CF911F91FF90EF90DF90CF90BF90AF905E
:100820009F908F907F906F905F904F903F902F9010
:100830000895CF93DF93EC0160E08E810E94B600B3
:1008400061E08E810E94B60060E08E810E94B60059
:100850008BE891E00197F1F7DF91CF910895CF9266
:10086000DF92EF92FF920F931F93CF93DF936C0170
:100870007C0187E0E80EF11CD0E0C0E0062F10E01C
:10088000B8010C2E02C0759567950A94E2F7617065
:10089000F70181917F010E94B6002196C430D105F5
:1008A00079F7C601DF91CF911F910F91FF90EF90E3
:1008B000DF90CF900C941904CF92DF92EF92FF92C9
:1008C0000F931F93CF93DF93EC01F62E642F8C814F
:1008D0000E94B6008D818F3F19F060E00E94B60043
:1008E0000F2D10E08F8584FF25C06E0187E0C80EB4
:1008F000D11CF12CE12CB8010E2C02C07595679526
:100900000A94E2F76170F60181916F010E94B600CE
:10091000FFEFEF1AFF0A88E0E816F10461F7CE0155
:10092000DF91CF911F910F91FF90EF90DF90CF90CB
:100930000C941904B80184E0759567958A95E1F7E0
:10094000CE010E942F046F2DCE01DF91CF911F9118
:100950000F91FF90EF90DF90CF900C942F0440E028
:10096000682F83E992E00C945C04CF93DF9382308C
:1009700029F49091A20298609093A2028093A6021B
:100980001092A70280E48093A80280E18093A902DC
:1009900080E58093AA0261E0809197020E94E400C2
:1009A000809198028F3F19F061E00E94E40061E0BD
:1009B000809199020E94E400C3E9D2E09E0123598C
:1009C00032408091A20284FD0BC084E090E0219629
:1009D0002817390744F461E08E810E94E400EECFCD
:1009E00088E090E0F4CF8BE39DE00197F1F760E0C1
:1009F000809197020E94B60060E0809199020E9467
:100A0000B600809198028F3F19F060E00E94B60016
:100A10008091A20284FD39C063E083E992E00E94E4
:100A20002F04CBE4D6E4CE010197F1F763E083E92C
:100A300092E00E942F042197F1F763E083E992E0AE
:100A40000E942F0483E592E00197F1F762E083E9C9
:100A500092E00E942F048091A20280620E94AF0463
:100A600084E08093A3028CE00E94AF0481E00E94A6
:100A7000AF048BE39FE10197F1F782E08093A4023A
:100A800086E0DF91CF910C94AF0480620E94AF04A6
:100A90008BE496E40197F1F78091A20280620E94B4
:100AA000AF0483E592E00197F1F78091A2028062A2
:100AB0000E94AF04D0CF41E00E945C0481E090E04E
:100AC00008951F920F920FB60F9211242F933F9308
:100AD0008F939F93AF93BF938091EE019091EF011D
:100AE000A091F001B091F1013091ED0123E0230FCD
:100AF0002D3758F50196A11DB11D2093ED0180936E
:100B0000EE019093EF01A093F001B093F101809179
:100B1000F2019091F301A091F401B091F5010196D9
:100B2000A11DB11D8093F2019093F301A093F401F4
:100B3000B093F501BF91AF919F918F913F912F910C
:100B40000F900FBE0F901F90189526E8230F029666
:100B5000A11DB11DD2CF1F920F920FB60F9211247B
:100B60002F933F934F935F936F937F938F939F93B5
:100B7000AF93BF93EF93FF938091E1019091E201D6
:100B8000A091E301B091E401892B8A2B8B2BD1F149
:100B90009091DC01E091DD01F091DE0180818927F7
:100BA00080838091E1019091E201A091E301B091F5
:100BB000E401181619061A061B069CF48091E1013F
:100BC0009091E201A091E301B091E4010197A109A4
:100BD000B1098093E1019093E201A093E301B09306
:100BE000E401FF91EF91BF91AF919F918F917F9120
:100BF0006F915F914F913F912F910F900FBE0F908A
:100C00001F901895809100010E947E01EACF1F92EB
:100C10000F920FB60F9211242F933F934F935F9330
:100C20006F937F938F939F93AF93BF93EF93FF93B4
:100C300086EF91E00E942802FF91EF91BF91AF9162
:100C40009F918F917F916F915F914F913F912F91E4
:100C50000F900FBE0F901F9018951F920F920FB616
:100C60000F9211242F938F939F93EF93FF93E09113
:100C70000602F09107028081E0910C02F0910D02D2
:100C800082FD1BC0908180910F028F5F8F73209136
:100C90001002821741F0E0910F02F0E0EA50FE4F9F
:100CA000958F80930F02FF91EF919F918F912F91DC
:100CB0000F900FBE0F901F9018958081F4CFE6EF34
:100CC000F1E01382128288EE93E0A0E0B0E084832A
:100CD0009583A683B78385E091E09183808385EC3B
:100CE00090E09587848784EC90E09787868780ECF6
:100CF00090E0918B808B81EC90E0938B828B82ECE7
:100D000090E0958B848B86EC90E0978B868B118E90
:100D1000128E138E148EE3E9F2E01382128287E1C1
:100D200091E09183808387E084838FEF858386E0E1
:100D3000868385E0878384E0808783E0818782E003
:100D400082871386148615861686178681E00C9492
:100D5000B504CF93DF93CDB7DEB76F970FB6F89496
:100D6000DEBF0FBECDBF789484B5826084BD84B5EC
:100D7000816084BD85B5826085BD85B5816085BD96
:100D800080916E00816080936E001092810080914E
:100D900081008260809381008091810081608093D6
:100DA0008100809180008160809380008091B100FB
:100DB00084608093B1008091B00081608093B00026
:100DC00080917A00846080937A0080917A008260BA
:100DD00080937A0080917A00816080937A0080917C
:100DE0007A00806880937A001092C10082E00E94AD
:100DF000B504E0910602F091070282E08083E09161
:100E00000202F09103021082E0910402F0910502C7
:100E10008FEC808310920E02E0910A02F0910B0297
:100E200086E08083E0910802F09109028081806170
:100E30008083E0910802F0910902808188608083BC
:100E4000E0910802F0910902808180688083E0913E
:100E50000802F091090280818F7D808360E771E054
:100E600086EF91E00E94290360E089E00E94E4009F
:100E700061E088E00E94E4006CED75E080E090E0C5
:100E80000E944C019E012F5E3F4F388F2F8BCE0169
:100E900045969E8B8D8BA1E0B0E0AC0FBD1F5296A6
:100EA000BF8FAE8F8EE00E941501BC01990F880B99
:100EB000990B0E94E80B20E030E040EA50E40E94E9
:100EC0009D0C20E030E040E85AE30E949D0C20E0B9
:100ED00030E04AE754E40E949D0C23E333E343E10E
:100EE00050E40E94450B4B015C0181E10E94150119
:100EF00020ED37E0DC010E940F0D2FEF33E040E0E2
:100F000050E00E94830ACA01B9010E94E80B6A8F6F
:100F10007B8F8C8F9D8F8FE00E941501BC01990FF4
:100F2000880B990B0E94E80B2AE038E240EA5BE369
:100F30000E949D0C9B01AC0160E070E080E890E4B1
:100F40000E94D30A20E030E040E85EE30E949D0C5E
:100F500020E030E04AE754E40E949D0C6B017C01E4
:100F600020E030E0A9010E94400B87FDA7C020E0EF
:100F700030E04AE754E4C701B6010E94980C181605
:100F80000CF4A0C0E8EBF0E08491E4EAF0E0049116
:100F9000E0E9F0E01491312C212C112399F081111A
:100FA0000E948D00E12FF0E0EE0FFF1FE859FF4F88
:100FB000A591B4918C91082391E080E009F490E030
:100FC000292E382E8E010F5F1F4F80E10E941501E0
:100FD000D8018D939D938D016AE070E080E090E0F0
:100FE0000E944C01ED89FE89E017F10771F7FE01BF
:100FF0003196DF018081918112962D913C9113975A
:101000002817390734F43183208313969C938E93E9
:10101000129712968E8D9F8D8A179B0759F73296DD
:101020002E8D3F8DE217F30721F7FE01359660E024
:1010300070E0CB01219131918901330F220B330BE9
:10104000600F711F821F931FAF89B88DAE17BF0746
:1010500089F70E94E80B20E030E040EC50E40E9469
:10106000450B20E030E040E651E40E949D0C20E07A
:1010700030EC4FE754E40E94450B2B013C0120E08B
:1010800030E040ED50E40E94400B87FD2EC220E08E
:1010900030E048E051E4C301B2010E94980C1816F8
:1010A0000CF423C220E030E040EA50E4C701B6016E
:1010B0000E94980C181694F481E011C0C12CD12C18
:1010C000760160CFC12CD12C4AE7E42E44E4F42E03
:1010D00059CFB22DB170B98F01E01FC1822D81703F
:1010E000898F20E030E04AE754E46A8D7B8D8C8D57
:1010F0009D8D0E94980C18160CF40EC120E030E073
:101100004AEF53E4C501B4010E94980C18160CF480
:1011100003C1E98DE11100C188E00E947E0100E079
:1011200081E00E94AF048BE39FE10197F1F7E1E0DA
:101130008091A6028111E0E0E195F0E0ED56FD4FCF
:10114000848980680E94AF0464E871E083E992E0DA
:101150000E94290321E0B301A20183E992E00E94E9
:101160002B0365E371E0002311F06EE271E083E987
:1011700092E00E942903E091A602E23008F0AAC1A1
:10118000E150F0E0ED56FD4F848980680E94AF0485
:1011900068E871E083E992E00E942903998D6BE38E
:1011A00071E0992311F069E371E083E992E00E9414
:1011B00029036BE871E083E992E00E94290320E0B3
:1011C00030E04AEF53E4C501B4010E94980C6BE390
:1011D00071E0181614F469E371E083E992E00E946B
:1011E00029036FE871E086EF91E00E94290322E075
:1011F000B301A20186EF91E00E942B0386E491E007
:10120000002311F08DE391E00E94160364E971E080
:1012100086EF91E00E94290321E0B501A40186EF49
:1012200091E00E942B0320E030E04AEF53E4C50137
:10123000B4010E94980C18160CF44EC186E491E09B
:101240000E9416036AE971E086EF91E00E9429038B
:1012500021E0B701A60186EF91E00E942B036DEA21
:1012600071E086EF91E00E94290320E030E040EA3F
:1012700050E4C701B6010E94980C18160CF42FC157
:1012800086E491E00E94160362EB71E086EF91E044
:101290000E94290383E691E02A94232811F48CE428
:1012A00091E00E94160366EC71E086EF91E00E94E7
:1012B000290321E04A8D5B8D6C8D7D8D86EF91E059
:1012C0000E942B0365ED71E086EF91E00E942903F7
:1012D00020E030E04AE754E46A8D7B8D8C8D9D8D53
:1012E0000E94980C18160CF4FDC086E491E00E9450
:1012F000160368EE73E080E090E00E944C0180E00D
:1013000090E0892B09F4CECD0E941402882309F4C1
:10131000BECD0E940000BBCD00E08091000188306E
:1013200049F5E2E7F0E0149117FDFACE61E088E0BC
:101330000E94E400112309F48FC0123009F0A3C009
:101340008091B100887F83608093B10089EF8093A2
:10135000B3008FEF9FEFDC018093E1019093E201F6
:10136000A093E301B093E4018091700082608093C8
:101370007000D6CE8F3F09F0D3CE88E08093000175
:10138000E2E7F0E014911F3F09F4CACE113021F1D9
:1013900050F0123009F43EC017FDC2CE61E088E083
:1013A0000E94E400CACF14BC15BC84B5826084BD21
:1013B00085B5816085BDEFE8F0E0E491F0E0EE0FE7
:1013C000FF1FE358FF4F85919491E3EAF0E0E49129
:1013D000E093E00110E0AACF10928000109281000B
:1013E000809181008860809381008091810081607C
:1013F00080938100EFE8F0E0E491F0E0EE0FFF1F52
:10140000E358FF4F85919491E3EAF0E0E491E09393
:10141000DF018CCF1092B0001092B1008091B0002B
:1014200082608093B0008091B10081608093B100B0
:10143000EFE8F0E0E491F0E0EE0FFF1FE358FF4F1C
:10144000859194919093DE018093DD01E3EAF0E0D1
:10145000E491E093DC016ACF85B5887F836085BD28
:101460008CE787BD8FEF9FEFDC018093E9019093BC
:10147000EA01A093EB01B093EC0180916E008260D1
:1014800080936E004DCE1130E9F480918100887F09
:101490008160809381002FE33FE1309389002093A6
:1014A00088008FEF9FEFDC018093E5019093E601C8
:1014B000A093E701B093E80180916F008260809370
:1014C0006F002ECE123021F011112ACE8FE3C9CF3A
:1014D0008FE33DCFE1E055CE8DE391E0B1CE8DE3DA
:1014E00091E0D0CE8DE391E002CF20E030E040EA01
:1014F00050E4C701B6010E94980C18160CF0E9CD13
:10150000F1E0F98FE9CD052E97FB1EF400940E94BF
:101510009A0A57FD07D00E94A20A07FC03D04EF496
:101520000C949A0A50954095309521953F4F4F4F16
:101530005F4F089590958095709561957F4F8F4F7F
:101540009F4F0895A1E21A2EAA1BBB1BFD010DC0DF
:10155000AA1FBB1FEE1FFF1FA217B307E407F50763
:1015600020F0A21BB30BE40BF50B661F771F881F3F
:10157000991F1A9469F760957095809590959B01D5
:10158000AC01BD01CF010895A29FB001B39FC0017E
:10159000A39F700D811D1124911DB29F700D811D9F
:1015A0001124911D08955058BB27AA270E94EB0AC9
:1015B0000C945E0C0E94500C38F00E94570C20F0E6
:1015C00039F49F3F19F426F40C944D0C0EF4E09579
:1015D000E7FB0C94470CE92F0E946F0C58F3BA17E5
:1015E000620773078407950720F079F4A6F50C9439
:1015F000910C0EF4E0950B2EBA2FA02D0B01B90122
:1016000090010C01CA01A0011124FF27591B99F078
:10161000593F50F4503E68F11A16F040A22F232F84
:10162000342F4427585FF3CF469537952795A795D4
:10163000F0405395C9F77EF41F16BA0B620B730B7B
:10164000840BBAF09150A1F0FF0FBB1F661F771FEC
:10165000881FC2F70EC0BA0F621F731F841F48F4A1
:10166000879577956795B795F7959E3F08F0B0CF2A
:101670009395880F08F09927EE0F97958795089511
:101680000E94230C08F481E008950E94590B0C94E9
:101690005E0C0E94570C58F00E94500C40F029F448
:1016A0005F3F29F00C94470C51110C94920C0C9450
:1016B0004D0C0E946F0C68F39923B1F3552391F3FD
:1016C000951B550BBB27AA2762177307840738F0B1
:1016D0009F5F5F4F220F331F441FAA1FA9F335D00E
:1016E0000E2E3AF0E0E832D091505040E695001CC2
:1016F000CAF72BD0FE2F29D0660F771F881FBB1F7C
:10170000261737074807AB07B0E809F0BB0B802D59
:10171000BF01FF2793585F4F3AF09E3F510578F085
:101720000C94470C0C94920C5F3FE4F3983ED4F376
:10173000869577956795B795F7959F5FC9F7880F59
:10174000911D9695879597F90895E1E0660F771FAB
:10175000881FBB1F621773078407BA0720F0621B3C
:10176000730B840BBA0BEE1F88F7E09508950E9467
:10177000770C88F09F5798F0B92F9927B751B0F0A0
:10178000E1F0660F771F881F991F1AF0BA95C9F705
:1017900014C0B13091F00E94910CB1E008950C9406
:1017A000910C672F782F8827B85F39F0B93FCCF3B9
:1017B000869577956795B395D9F73EF49095809582
:1017C000709561957F4F8F4F9F4F0895E89409C0A2
:1017D00097FB3EF490958095709561957F4F8F4F64
:1017E0009F4F9923A9F0F92F96E9BB279395F6957A
:1017F000879577956795B795F111F8CFFAF4BB0FF8
:1018000011F460FF1BC06F5F7F4F8F4F9F4F16C05B
:10181000882311F096E911C0772321F09EE8872FE5
:10182000762F05C0662371F096E8862F70E060E0A1
:101830002AF09A95660F771F881FDAF7880F96951A
:10184000879597F90895990F0008550FAA0BE0E8BE
:10185000FEEF16161706E807F907C0F01216130672
:10186000E407F50798F0621B730B840B950B39F4B2
:101870000A2661F0232B242B252B21F408950A2618
:1018800009F4A140A6958FEF811D811D089597F958
:101890009F6780E870E060E008959FEF80EC089516
:1018A00000240A941616170618060906089500243F
:1018B0000A9412161306140605060895092E0394B9
:1018C000000C11F4882352F0BB0F40F4BF2B11F42D
:1018D00060FF04C06F5F7F4F8F4F9F4F089557FD8C
:1018E0009058440F551F59F05F3F71F04795880F8E
:1018F00097FB991F61F09F3F79F087950895121625
:1019000013061406551FF2CF4695F1DF08C01616D0
:1019100017061806991FF1CF869571056105089481
:101920000895E894BB2766277727CB0197F9089598
:101930000E94230C08F48FEF08950E94B00C0C94C1
:101940005E0C0E94500C38F00E94570C20F095233A
:1019500011F00C94470C0C944D0C11240C94920C27
:101960000E946F0C70F3959FC1F3950F50E0551FC7
:10197000629FF001729FBB27F00DB11D639FAA27E4
:10198000F00DB11DAA1F649F6627B00DA11D661F33
:10199000829F2227B00DA11D621F739FB00DA11D54
:1019A000621F839FA00D611D221F749F3327A00D0E
:1019B000611D231F849F600D211D822F762F6A2FAA
:1019C00011249F5750409AF0F1F088234AF0EE0F0F
:1019D000FF1FBB1F661F771F881F91505040A9F73C
:1019E0009E3F510580F00C94470C0C94920C5F3F85
:1019F000E4F3983ED4F3869577956795B795F79578
:101A0000E7959F5FC1F7FE2B880F911D96958795EF
:101A100097F908950E94230C880B990B08950E9452
:101A2000C40AB7FF0895821B930B0895EE0FFF1FA2
:0C1A30000590F491E02D0994F894FFCF8C
:101A3C00FF000000004A02AA01D70197020802E643
:101A4C0001FA01000000005B05AA01B802B7020D03
:101A5C000A006E616E00696E66006F76660020414A
:101A6C004C45525400204F4B0041004F0020284160
:101A7C004C455254290020284F4B290048494748CF
:101A8C00202841626F7665207468726573686F6C8C
:101A9C006429004C4F5720284E6F726D616C2900E1
:101AAC0057656C636F6D6521204C6F6164696E675F
:101ABC002E2E2E0070483A00543A0020443A007002
:101ACC00483A20005444533A2000547572626964B9
:101ADC0069747920416E616C6F673A2000204E5416
:101AEC005500547572626964697479204469676938
:101AFC0074616C3A2000436F6E6475637469766927
:0C1B0C0074793A20002075532F636D009F
:00000001FF
